{
  "contractName": "Ballot",
  "abi": [
    {
      "inputs": [
        {
          "name": "_numProposals",
          "type": "uint8"
        }
      ],
      "payable": false,
      "stateMutability": "nonpayable",
      "type": "constructor"
    },
    {
      "constant": false,
      "inputs": [
        {
          "name": "toProposal",
          "type": "uint8"
        }
      ],
      "name": "vote",
      "outputs": [],
      "payable": false,
      "stateMutability": "nonpayable",
      "type": "function"
    },
    {
      "constant": true,
      "inputs": [],
      "name": "winningProposal",
      "outputs": [
        {
          "name": "_winningProposal",
          "type": "uint8"
        }
      ],
      "payable": false,
      "stateMutability": "view",
      "type": "function"
    },
    {
      "constant": true,
      "inputs": [
        {
          "name": "voter",
          "type": "address"
        }
      ],
      "name": "getVote",
      "outputs": [
        {
          "name": "",
          "type": "uint8"
        }
      ],
      "payable": false,
      "stateMutability": "view",
      "type": "function"
    }
  ],
  "bytecode": "0x608060405234801561001057600080fd5b506040516020806104b28339810180604052602081101561003057600080fd5b8101908080519060200190929190505050336000806101000a81548173ffffffffffffffffffffffffffffffffffffffff021916908373ffffffffffffffffffffffffffffffffffffffff16021790555060018060008060009054906101000a900473ffffffffffffffffffffffffffffffffffffffff1673ffffffffffffffffffffffffffffffffffffffff1673ffffffffffffffffffffffffffffffffffffffff168152602001908152602001600020600001819055508060ff166002816100fa9190610101565b5050610154565b81548183558181111561012857818360005260206000209182019101610127919061012d565b5b505050565b61015191905b8082111561014d5760008082016000905550600101610133565b5090565b90565b61034f806101636000396000f3fe608060405234801561001057600080fd5b50600436106100415760003560e01c8063609ff1bd146100465780638d337b811461006a578063b3f98adc146100c8575b600080fd5b61004e6100f9565b604051808260ff1660ff16815260200191505060405180910390f35b6100ac6004803603602081101561008057600080fd5b81019080803573ffffffffffffffffffffffffffffffffffffffff169060200190929190505050610171565b604051808260ff1660ff16815260200191505060405180910390f35b6100f7600480360360208110156100de57600080fd5b81019080803560ff1690602001909291905050506101ca565b005b6000806000905060008090505b6002805490508160ff16101561016c578160028260ff168154811061012757fe5b9060005260206000200160000154111561015f5760028160ff168154811061014b57fe5b906000526020600020016000015491508092505b8080600101915050610106565b505090565b6000600160008373ffffffffffffffffffffffffffffffffffffffff1673ffffffffffffffffffffffffffffffffffffffff16815260200190815260200160002060010160019054906101000a900460ff169050919050565b6000600160003373ffffffffffffffffffffffffffffffffffffffff1673ffffffffffffffffffffffffffffffffffffffff16815260200190815260200160002090506002805490508260ff161061026d576040517f08c379a00000000000000000000000000000000000000000000000000000000081526004018080602001828103825260318152602001806102f36031913960400191505060405180910390fd5b60018160010160006101000a81548160ff021916908315150217905550818160010160016101000a81548160ff021916908360ff1602179055506000816000015414156102bf57600181600001819055505b806000015460028360ff16815481106102d457fe5b9060005260206000200160000160008282540192505081905550505056fe766f7465722068617320766f7465206f722070726f706f73616c206973206c6172676572207468616e2064656661756c74a165627a7a723058203908498285d380f94c42a2acc36449041425345d480b55cd1fde1f3825a7e8140029",
  "source": "pragma solidity >=0.4.22 <0.6.0;\n\ncontract Ballot {\n\n    struct Voter {\n        uint weight;\n        bool voted;\n        uint8 vote;\n        address delegate;\n    }\n    struct Proposal {\n        uint voteCount;\n    }\n\n    address chairperson;\n    mapping(address => Voter) voters;\n    Proposal[] proposals;\n\n    /// Create a new ballot with $(_numProposals) different proposals.\n    constructor(uint8 _numProposals) public {\n        chairperson = msg.sender;\n        voters[chairperson].weight = 1;\n        proposals.length = _numProposals;\n    }\n    \n    /// Give a single vote to proposal $(toProposal).\n    function vote(uint8 toProposal) public {\n        Voter storage sender = voters[msg.sender];\n        require(toProposal < proposals.length,\"voter has vote or proposal is larger than default\");\n        sender.voted = true;\n        sender.vote = toProposal;\n        if(sender.weight == 0){\n            sender.weight = 1;\n        }\n        proposals[toProposal].voteCount += sender.weight;\n    }\n\n    function winningProposal() public view returns (uint8 _winningProposal) {\n        uint256 winningVoteCount = 0;\n        for (uint8 prop = 0; prop < proposals.length; prop++)\n            if (proposals[prop].voteCount > winningVoteCount) {\n                winningVoteCount = proposals[prop].voteCount;\n                _winningProposal = prop;\n            }\n    }\n    \n    function getVote(address voter)public view returns(uint8){\n        return voters[voter].vote;\n    }\n}\n",
  "sourcePath": "/Users/lowesyang/Documents/website/ballot/solidity/contracts/Ballot.sol",
  "compiler": {
    "name": "solc",
    "version": "0.5.8+commit.23d335f2.Emscripten.clang"
  },
  "schemaVersion": "3.0.13",
  "updatedAt": "2019-12-11T11:41:19.160Z",
  "devdoc": {
    "methods": {}
  },
  "userdoc": {
    "methods": {
      "constructor": "Create a new ballot with $(_numProposals) different proposals.",
      "vote(uint8)": {
        "notice": "Give a single vote to proposal $(toProposal)."
      }
    }
  }
}